:020000040800F2
:10000000204200209950000831060008199100088C
:1000100033060008370600083B0600080000000011
:100020000000000000000000000000003F06000883
:10003000AD5000080000000067900008F5050008BA
:10004000B3500008B3500008B3500008B350000884
:10005000B3500008B3500008B3500008B350000874
:10006000B3500008B3500008B3500008B350000864
:10007000170A0008B3500008B3500008B350000836
:10008000F3090008B3500008B3500008B35000084B
:10009000B3500008B3500008B3500008B350000834
:1000A000B3500008B3500008B3500008B350000824
:1000B000B3500008B3500008B3500008B350000814
:1000C000B3500008B3500008B3500008B350000804
:1000D000B3500008BD090008E1090008050A00083E
:1000E000B3500008B3500008B3500008B3500008E4
:1000F000B3500008B3500008B3500008B3500008D4
:10010000B350000815410108B3500008B35000086F
:10011000B3500008B3500008B3500008B3500008B3
:10012000B3500008B3500008B35000081D41010847
:10013000B3500008B3500008B3500008B350000893
:10014000B3500008B3500008B3500008B350000883
:10015000CF090008B3500008B3500008B35000089E
:10016000B3500008B3500008B3500008B350000863
:10017000B3500008B3500008B3500008B350000853
:10018000B3500008B350000800F002F800F06DF81A
:100190000AA090E8000C82448344AAF10107DA45E2
:1001A00001D100F062F8AFF2090EBAE80F0013F0C7
:1001B000010F18BFFB1A43F001031847F00C0400AD
:1001C000100D04000A444FF0000C10F8013B13F02E
:1001D000070408BF10F8014B1D1108BF10F8015BA0
:1001E000641E05D010F8016B641E01F8016BF9D193
:1001F00013F0080F1EBF10F8014BAD1C0C1B09D1EA
:100200006D1E58BF01F801CBFAD505E014F8016B5B
:1002100001F8016B6D1EF9D59142D6D370470000ED
:100220000023002400250026103A28BF78C1FBD8FF
:10023000520728BF30C148BF0B607047642914F0D3
:100240006F80732914F0DB82002070471FB514F013
:10025000CDFB14F091FB04000020002114F0B0FB52
:10026000401C60601FBD10B510BD14F060FB11464E
:10027000FFF7ECFF00F04AF914F090FB03B4FFF72E
:10028000F2FF03BC14F094FB00210C2008F0CEFF19
:1002900000210D2008F0CAFF00BF00210C2008F04B
:1002A000D8FF01210D2008F0D4FF642008F0FAFAED
:1002B00001210C2008F0CDFF00210D2008F0C9FF1E
:1002C000642008F0EFFAE8E7ADF6080D6448416AEB
:1002D000644800688847624840F20331826A614896
:1002E0000068904700BF012008F0DCFA5C484FF43A
:1002F0007A730DF204420021056B5A480068A84742
:100300000446002C1DDD0DF20443224656A168462A
:1003100013F094FF684614F04CF8064650483346F4
:100320006A460021456B4F480068A84740F20441E7
:10033000684614F041F940F204410DF2044014F013
:100340003BF9D0E701224AA14A4810F08FFD4A4903
:100350000870084600780D2818D10022114644A0E4
:1003600011F0FCFC444908700846007878B9012275
:100370003FA1002010F07AFD3F49087001223CA106
:100380003C4810F073FD3C49087000E000BF3BA002
:1003900011F04FFB0A223AA13C4810F092FD364979
:1003A00008700846007850B9394B46223949374819
:1003B00010F036FF30490870344811F08FF800BF54
:1003C000642008F06FFAFBE71CB5002414200A2112
:1003D0004FF400630022CDE90010AFF253112EA0BC
:1003E00008F0A0F92E4941F82400084650F82400EE
:1003F00018B151F8240008F049F9641C12200B21AF
:100400004FF480530022CDE90010AFF2431125A034
:1004100008F088F9224941F82400084650F82400E1
:1004200018B151F8240008F031F9641C13200C2194
:100430004FF480530022CDE90010AFF2F7011BA06A
:1004400008F070F9164941F82400084650F82400D5
:1004500018B151F8240008F019F9641C00201CBDE3
:100460000C2700200000002025642C25730D0A00B5
:10047000303A0000B80200200400002077786300C2
:10048000303A46617466732E74787400E812002066
:10049000080000200C000020696E69740000000054
:1004A0009002002073657269616C00005344300053
:1004B00004460D4619A006F07CFF214621A006F057
:1004C00078FF294624A006F074FF00BFFEE710B5B0
:1004D00000F098F806F09DFF04F0FEFD07F027FD00
:1004E00008F098FC2149224807F01EF907F09EFE0B
:1004F000FFF76AFF0AF04DFC1EA009F0D0FF08F0DC
:1005000095FC05F007F807F0ADFE10BD10B508F03A
:1005100093FDFFF7DCFF002010BD00000A0D2057FF
:10052000726F6E6720706172616D6574657220769E
:10053000616C7565206465746563746564206F6EB5
:100540000D0A00002020202020202066696C6520F4
:100550002025730D0A000000202020202020206C80
:10056000696E65202025640D0A000000000002204D
:1005700020420020756172743200000010B5002125
:100580004FF0006000F047FD4FF4A06000F0D6FC93
:1005900010BD7FB5684602F0B9FE64210198B0FB3A
:1005A000F1F4E4082146B1F1807F00D31DE021F091
:1005B0007F40401E4FF0E022506150170F2200286C
:1005C00007DA13071E0E164B00F00F052D1F5E55A0
:1005D00003E013071D0E134B1D5400BF00204FF006
:1005E000E02290610720106100BF6FF0040000F06E
:1005F00057FD7FBD10B506F0F7FA04F07CFD06F05C
:1006000002FB10BD10B5FFF7B9FFFFF7C2FF00F006
:10061000A3FA00F07DFB04A006F040FF10BD00002F
:1006200018ED00E000E400E0756172743200000033
:10063000704700BFFEE700BFFEE700BFFEE7704760
:100640007FB505460C4625B96722F749F7A006F0A5
:100650008CFF24B96822F449F9A006F086FFEE6BFE
:1006600020680090207900F00F00082803D10020B6
:10067000ADF8040008E0207900F00F00092803D14C
:100680004FF48050ADF804002079C0F3011018B980
:100690000020ADF8060007E02079C0F30110012822
:1006A00002D14003ADF806002079C0F3811018B9DB
:1006B0000020ADF8080011E02079C0F38110012876
:1006C00004D14FF4C060ADF8080007E02079C0F312
:1006D0008110022802D14002ADF808000020ADF8D8
:1006E0000C000C20ADF80A006946306803F0DFFD0D
:1006F0000121306803F024FF002004B070BDF0B584
:100700008FB005460E461746EC6BA661A06800F058
:100710000BFD00BFA06801F08CFA0028FAD1E06858
:1007200000902068001D0190029700200390A069AE
:100730000490002005904FF4806006900020079000
:1007400008904FF48070099040020A9000200B90AE
:1007500003200C9000200D900E906946A06800F0D8
:10076000CAFD0FB0F0BDF8B50546EC6BEE6C01228A
:1007700040F22441206804F072FA0121480502F099
:10078000E1FE0121880502F0DDFE3268A86CC0F3AD
:100790008F212846FFF7B3FF2169A06801F0DAFB3B
:1007A00001221021A06801F043FC012240212068B1
:1007B00004F019FA0121A06800F022FF207D8DF8D5
:1007C000000000208DF8010001208DF802008DF856
:1007D0000300684600F0CDFBF8BD2DE9F041054669
:1007E0000E461746B84625B9912299498FA006F0C2
:1007F000BCFEEC6B032E29D0102E13D0112E2BD162
:1008000094F9040000F01F0201219140914A43092C
:1008100042F8231000BF002240F22551206804F066
:100820001EFA19E094F9040000F01F020121914022
:100830004209920002F1E022C2F8001100BF012239
:1008400040F22551206804F00AFA05E0B8F5007F6F
:1008500002D12846FFF787FF00BF0020BDE8F081E6
:1008600070B504460E4624B9B0227B496FA006F04D
:100870007CFEE56B00BF2868008800F0800000283F
:10088000F9D028688680012070BD70B5044624B96F
:10089000BE22724965A006F068FEE56B4FF0FF3698
:1008A0002868008800F0200010B128688088C6B24F
:1008B000304670BD2DE9F0410746FC6BA06801F0A1
:1008C00001F8A1690D1AE069A84202D8E0692E1A60
:1008D00003E0D4E90610081A4619E561032040EA4E
:1008E0000621384609F0DDF8206803F036FFBDE840
:1008F000F0812DE9F0410746FC6B2169A06801F009
:1009000036FA10B30021A06800F07AFEA06800F06B
:10091000D9FFA1690D1AE069A84202D8E0692E1A30
:1009200004E0D4E90610081A4619E561E5610320E0
:1009300040EA0621384609F0B4F82169A06801F0C0
:1009400009FB0121A06800F05BFEBDE8F08170B5F5
:100950000546EC6B2CB940F22912414941A006F042
:1009600004FE40F22551206804F0A7FA40B10121AD
:10097000284609F096F840F22551206804F02BFB38
:1009800040F22441206804F098FA10B12846FFF79D
:1009900091FF40F22661206804F08FFA20B140F206
:1009A0002661206804F017FB0821206804F0DDF9B7
:1009B000012802D12846FFF768FF70BD10B506F088
:1009C00013F92C48FFF7C3FF06F01DF910BD10B551
:1009D00006F00AF92748FFF78CFF06F014F910BD5E
:1009E00010B506F001F92448FFF7B1FF06F00BF946
:1009F00010BD10B506F0F8F81F48FFF77AFF06F0B3
:100A000002F910BD10B506F0EFF81C48FFF79FFF84
:100A100006F0F9F810BD10B506F0E6F81748FFF734
:100A200068FF06F0F0F810BD0C4A010873657269A2
:100A3000616C20213D2052545F4E554C4C0000000B
:100A400063666720213D2052545F4E554C4C000098
:100A50001C4A010880E100E02A4A0108354A0108E1
:100A6000404A01087561727420213D2052545F4E46
:100A7000554C4C000C27002060270020B427002094
:100A800010B50121084602F05DFD0121102002F0A1
:100A900048FE0121084602F055FD0121480402F0FC
:100AA00017FE0121082002F04DFD0121880402F00B
:100AB0000FFE10BD1CB502208DF8040000208DF83B
:100AC000060001208DF8070000208DF805004FF486
:100AD000C06000906946424801F09AFD0722092152
:100AE0003F4802F0D2F807220A213D4802F0CDF833
:100AF0000C20009069463A4801F08AFD0722022145
:100B0000374802F0C2F807220321354802F0BDF849
:100B10004FF4407000906946324801F079FD072299
:100B20000821304802F0B1F8072209212D4802F0CF
:100B3000ACF81CBD38B5044620798DF800000320C0
:100B40008DF8010000208DF8020001208DF80300CF
:100B5000684600F00EFA38BD1CB5234903C9CDE93B
:100B60000001FFF78DFFFFF7A5FF204C204821492A
:100B700008640846DDE90012C0E911122046FFF7BB
:100B8000D9FF234640F203321BA11A4808F063FF45
:100B90001B4C17481B4908640846DDE90012C0E9F0
:100BA00011122046FFF7C6FF234640F2033216A17A
:100BB000144808F050FF164C0D48164908640846C2
:100BC000DDE90012C0E911122046FFF7B3FF23460A
:100BD00040F2033210A10F4808F03DFF00201CBD79
:100BE00000000240000C02404C4A01085400002062
:100BF000F84901080C27002075617274310000006B
:100C000074000020602700207561727432000000BB
:100C100094000020B4270020756172743300000036
:100C20000146362903D23E4A02EB011000E00020C3
:100C300070472DE9F04107460D461646E8B2FFF72A
:100C4000EFFF04460CB9BDE8F0812EB9A28991B23C
:100C5000A06801F035FF04E0A28991B2A06801F01C
:100C6000FEFE00BFEFE72DE9F04107460D460026E6
:100C7000E8B2FFF7D5FF044614B93046BDE8F0816D
:100C8000A28991B2A06801F0B4FD08B9002600E085
:100C900001263046F2E72DE9FC4107460E46144690
:100CA000F0B2FFF7BDFF05460DB9BDE8FC8101219B
:100CB000686802F047FCE868009000208DF80600A4
:100CC00003208DF8050034B901208DF804000020C0
:100CD0008DF8070016E0012C05D100208DF80400E6
:100CE0008DF807000EE0022C06D100208DF80400DC
:100CF00001208DF8070005E000208DF80400022097
:100D00008DF807006946A86801F082FC00BFCCE7B7
:100D100010B50022034904A008F06CFA002010BDB1
:100D2000544A0108B44D010870696E000CB50020EA
:100D3000019000907648006840F480307449086063
:100D400000BF7348006800F4003000900198401C18
:100D50000190009818B90198B0F5A06FF1D16C48D6
:100D6000006800F4003010B10120009001E0002084
:100D700000900098012846D165484030006840F056
:100D800080506349403108606248006840F4804008
:100D9000604908605E48083000685D4908310860B5
:100DA0000846006840F4004008600846006840F4C7
:100DB000A05008605848091F0860081F006840F0EC
:100DC0008070091F086000BF5148006800F0007083
:100DD0000028F9D040F20560504908604C480830BE
:100DE000006820F003004A4908310860084600689E
:100DF00040F00200086000BF45480830006800F07D
:100E00000C000828F8D10CBD10B54548006840F426
:100E10007000434908603E48006840F001003C49CA
:100E2000086000203A4908310860394800683D49A7
:100E30000840374908603C48091D0860081F0068E1
:100E400020F48020091F0860002031490C3108601F
:100E5000FFF76CFF4FF0006031498039086010BD2A
:100E600070B500200022022300240221284D0835FD
:100E70002D6805F00C0020B1042806D0082834D1D4
:100E800007E02A4D2A4E356033E02A4D284E356062
:100E90002FE01F4D2D1D2D68C5F380541C4D2D1DB9
:100EA0002D6805F03F0154B1224DB5FBF1F5184E08
:100EB000361D3668C6F3881605FB06F209E01B4DA1
:100EC000B5FBF1F5124E361D3668C6F3881605FBE4
:100ED00006F20F4D2D1D2D68C5F301456D1C6B00ED
:100EE000B2FBF3F5124E356003E0104D104E356045
:100EF00000BF00BF064D08352D68C5F303150E4E23
:100F0000705D0B4D2D68C540094E356070BD000009
:100F1000003802400070004008544007003C024086
:100F200088ED00E0FFFFF6FE103000240024F400FE
:100F3000B400002000127A00B800002010B504466A
:100F4000B4F5E06F0BD0B4F5C06F08D0B4F5A06F66
:100F500005D0B4F5806F02D0B4F5407F00D103E036
:100F600073215FA0FFF7A4FA69482043694908602C
:100F700010BD2DE9F0410446002500270F26E0783A
:100F800010B1E078012800D103E0872154A0FFF7D9
:100F90008FFA6078102800DA03E0882150A0FFF76C
:100FA00087FAA078102800DA03E089214CA0FFF727
:100FB0007FFAE07818B35748006800F4E060C0F5A5
:100FC000E060C0F30725C5F10400C7B22E41607888
:100FD000B840C5B2A078304005432807050E4E48FA
:100FE00021784554207800F01F01012088402178A5
:100FF0004911890001F1E021C1F8000109E02078E0
:1010000000F01F010120884044492278521141F824
:101010002200BDE8F08170B504460D46B4F1005FD2
:1010200002D0B4F1006F00D103E0B1212CA0FFF792
:101030003FFA3B48854200D203E0B22128A0FFF7E7
:1010400037FA384905EA010020433249091F086090
:1010500070BD70B504460D46102C03D0042C01D091
:10106000022C00D103E0C4211DA0FFF721FA0DB12D
:10107000012D00D103E0C52119A0FFF719FA3DB1F8
:101080002448001D006820432249091D086006E02D
:101090002048001D0068A0431E49091D086070BD5E
:1010A00010B50446042C01D0601D00B903E0DC211A
:1010B0000BA0FFF7FDF9042C08D14FF0E0200069E8
:1010C00040F004004FF0E021086107E04FF0E0201D
:1010D000006920F004004FF0E021086110BD00001D
:1010E0004C69627261726965735C53544D33324668
:1010F0003478785F5374645065726970685F4472C5
:10110000697665725C7372635C6D6973632E6300EC
:101110000000FA050CED00E000E400E080E100E0F2
:10112000FFFF0F0080FFFF1F10B50446FE488442FA
:101130003AD0FD481830844236D0FB4830308442E3
:1011400032D0F948483084422ED0F748603084428B
:101150002AD0F5487830844226D0F3489030844233
:1011600022D0F148A83084421ED0F04884421BD0DF
:10117000EE481830844217D0EC483030844213D007
:10118000EA48483084420FD0E848603084420BD0AF
:10119000E6487830844207D0E4489030844203D057
:1011A000E248A830844200D103E0BF21E0A0FFF76D
:1011B0007FF9206820F0010020600020206060603E
:1011C000A060E060206121206061D748844204D1A2
:1011D0003D20D549103988608CE0D34818308442CE
:1011E00005D14FF47460D0491039886082E0CE4850
:1011F0003030844205D14FF47410CB4910398860E7
:1012000078E0C9484830844205D14FF07460C6493F
:10121000103988606EE0C4486030844204D1D348FD
:10122000C1491039C86065E0BF487830844204D1B4
:10123000CF48BD491039C8605CE0BB48903084425B
:1012400004D1CC48B8491039C86053E0B648A8303A
:10125000844205D14FF03D50B3491039C86049E090
:10126000B248844204D13D20B0490839086041E0C9
:10127000AE481830844205D14FF47460AB49083948
:10128000086037E0A9483030844205D14FF474102B
:10129000A649083908602DE0A4484830844205D1A9
:1012A0004FF07460A1490839086023E09F4860301E
:1012B000844204D1AD489D49091F08601AE09B484B
:1012C0007830844204D1AA489849091F086011E087
:1012D00096489030844204D1A6489449091F08607A
:1012E00008E09248A830844204D14FF03D508F4925
:1012F000091F086010BD70B505460C4600268A48D7
:1013000085423AD088481830854236D086483030F9
:10131000854232D08448483085422ED082486030A1
:1013200085422AD080487830854226D07E48903049
:10133000854222D07C48A83085421ED07B48854219
:101340001BD07A481830854217D078483030854213
:1013500013D07648483085420FD0744860308542BB
:101360000BD072487830854207D070489030854263
:1013700003D06E48A830854200D104E04FF49E713E
:101380006BA0FFF795F82068D8B12068B0F1007F16
:1013900017D02068B0F1806F13D02068B0F1C06F13
:1013A0000FD02068B0F1006F0BD02068B0F1206F33
:1013B00007D02068B0F1406F03D02068B0F1606FB3
:1013C00000D104E040F23D1159A0FFF771F8E06848
:1013D00028B1E068402802D0E068802800D104E00D
:1013E0004FF49F7152A0FFF763F8206920B1206984
:1013F000B0F5803F00D204E040F23F114CA0FFF76F
:1014000057F86069B0F5007F01D0606900B904E069
:101410004FF4A07146A0FFF74BF8A069B0F5806FBC
:1014200001D0A06900B904E040F2411140A0FFF7EB
:101430003FF8E06938B1E069B0F5006F03D0E069CA
:10144000B0F5805F00D104E04FF4A17138A0FFF740
:101450002FF8206A38B1206AB0F5005F03D0206A07
:10146000B0F5804F00D104E040F2431130A0FFF707
:101470001FF8606A18B1606AB0F5807F00D104E09F
:101480004FF4A2712AA0FFF713F8A06A58B1A06A1E
:10149000B0F5803F07D0A06AB0F5003F03D0A06A46
:1014A000B0F5403F00D104E040F2451120A0FEF726
:1014B000FFFFE06A10B1E06A042800D104E04FF4B5
:1014C000A3711BA0FEF7F4FF206B40B1206B012835
:1014D00005D0206B022802D0206B032800D104E045
:1014E00040F2471112A0FEF7E3FF606B58B1606B4A
:1014F000B0F5000F07D0606BB0F1807F03D0606B58
:10150000B0F1C07F00D104E04FF4A47108A0FEF751
:10151000CFFFA06B80B3A06BB0F5001F31D0A06BE4
:10152000B0F5800F2DD028E010600240106402401A
:101530004C69627261726965735C53544D33324613
:101540003478785F5374645065726970685F447270
:10155000697665725C7372635C73746D3332663482
:1015600078785F646D612E63000000003D0000200C
:10157000400F002000003D2003E0A06BB0F5C00F3D
:1015800000D105E040F24911AFF25C00FEF790FF98
:101590002E68FE480640E1682068084361690843F8
:1015A000A1690843E1690843216A0843616A084365
:1015B000A16A0843616B0843A16B084306432E6090
:1015C0006E6926F00706D4E90B01084306436E61F5
:1015D000206968606068A860A068E86070BD00214C
:1015E000016041608160C160016141618161C161EF
:1015F000016241628162C16201634163816370473C
:1016000070B504460D46E24884423AD0E0481830AE
:10161000844236D0DE483030844232D0DC48483014
:1016200084422ED0DA48603084422AD0D8487830BC
:10163000844226D0D6489030844222D0D448A83064
:1016400084421ED0D34884421BD0D24818308442F2
:1016500017D0D0483030844213D0CE48483084422E
:101660000FD0CC48603084420BD0CA4878308442D6
:1016700007D0C8489030844203D0C648A83084427E
:1016800000D105E040F2D911AFF25C10FEF710FF77
:101690000DB1012D00D105E04FF4ED71AFF27010E6
:1016A000FEF706FF25B1206840F00100206003E04E
:1016B000206820F00100206070BD70B504460D4622
:1016C000B34884423AD0B2481830844236D0B04849
:1016D0003030844232D0AE48483084422ED0AC48BC
:1016E000603084422AD0AA487830844226D0A84864
:1016F0009030844222D0A648A83084421ED0A5480B
:1017000084421BD0A3481830844217D0A1483030FF
:10171000844213D09F48483084420FD09D486030A7
:1017200084420BD09B487830844207D0994890304F
:10173000844203D09748A830844200D105E040F2AB
:10174000FD11AFF21420FEF7B3FE15B1B5F5004F51
:1017500000D105E04FF4FF71AFF22C20FEF7A8FE98
:1017600025B1206840F40040206003E0206820F4A8
:101770000040206070BD70B504460D468448844228
:101780003AD083481830844236D081483030844281
:1017900032D07F48483084422ED07D486030844229
:1017A0002AD07B487830844226D0794890308442D1
:1017B00022D07748A83084421ED0764884421BD07D
:1017C00074481830844217D072483030844213D0A5
:1017D0007048483084420FD06E48603084420BD04D
:1017E0006C487830844207D06A489030844203D0F5
:1017F0006848A830844200D105E040F22121AFF2D0
:10180000D020FEF755FE0DB1202D00D105E040F2AD
:101810002221AFF2E420FEF74BFE25B1206840F014
:101820002000206003E0206820F02000206070BDD0
:1018300070B504460D46564884423AD05448183094
:10184000844236D052483030844232D050484830FA
:1018500084422ED04E48603084422AD04C487830A2
:10186000844226D04A489030844222D04848A8304A
:1018700084421ED0474884421BD0464818308442D8
:1018800017D044483030844213D042484830844214
:101890000FD04048603084420BD03E4878308442BC
:1018A00007D03C489030844203D03A48A830844264
:1018B00000D105E040F27521AFF28C30FEF7F8FD63
:1018C000656070BD10B50446314884423AD0304856
:1018D0001830844236D02E483030844232D02C48E2
:1018E000483084422ED02A48603084422AD028488A
:1018F0007830844226D026489030844222D0244832
:10190000A83084421ED0234884421BD0214818307E
:10191000844217D01F483030844213D01D484830CD
:1019200084420FD01B48603084420BD01948783075
:10193000844207D017489030844203D01548A8301D
:10194000844200D105E04FF42171AFF21C40FEF754
:10195000AFFD606880B210BD70B504460E461546F6
:101960000B48844240D00A48183084423CD0084892
:101970003030844238D006484830844234D004485D
:101980006030844230D00248783005E03F801CF05F
:101990001060024010640240844225D0FE48844218
:1019A00022D0FD48183084421ED0FC4884421BD00F
:1019B000FA481830844217D0F8483030844213D0A7
:1019C000F648483084420FD0F448603084420BD04F
:1019D000F2487830844207D0F0489030844203D0F7
:1019E000EE48A830844200D105E040F2D221AFF2A7
:1019F000C040FEF75DFD15B1B5F5002F00D105E043
:101A000040F2D321AFF2D840FEF752FD25B1206855
:101A100040F40020206003E0206820F400202060D3
:101A2000266170BD70B504460D46DB48903884428F
:101A300039D0D9487838844235D0D7486038844284
:101A400031D0D548483884422DD0D34830388442EC
:101A500029D0D1481838844225D0CF48844222D09A
:101A6000CD48183084421ED0CC4884421BD0CB488D
:101A70001830844217D0C9483030844213D0C74848
:101A8000483084420FD0C548603084420BD0C348F0
:101A90007830844207D0C1489030844203D0BF4898
:101AA000A830844200D105E04FF43C71AFF2805081
:101AB000FEF7FEFC0DB1012D00D105E040F2F12151
:101AC000AFF29450FEF7F4FC25B1206840F480207A
:101AD000206003E0206820F48020206070BD70B595
:101AE00004460E461546AC489038844239D0AA4880
:101AF0007838844235D0A8486038844231D0A6482E
:101B0000483884422DD0A4483038844229D0A24895
:101B10001838844225D0A048844222D09E481830EC
:101B200084421ED09D4884421BD09C481830844279
:101B300017D09A483030844213D0984848308442B5
:101B40000FD09648603084420BD09448783084425D
:101B500007D092489030844203D09048A830844205
:101B600000D105E040F21A31AFF23C60FEF7A0FC74
:101B700015B1B5F5002F00D105E040F21B31AFF2F1
:101B80005060FEF795FC0DB1266100E0E66070BD87
:101B900070B50446002580489038844239D07E488C
:101BA0007838844235D07C486038844231D07A48D5
:101BB000483884422DD078483038844229D076483D
:101BC0001838844225D07448844222D07248183094
:101BD00084421ED0714884421BD070481830844221
:101BE00017D06E483030844213D06C48483084425D
:101BF0000FD06A48603084420BD068487830844205
:101C000007D066489030844203D06448A8308442AC
:101C100000D105E040F23531AFF2EC60FEF748FC50
:101C2000206800F4002008B1012500E000252846C6
:101C300070BD70B50446002557489038844239D0AD
:101C400055487838844235D053486038844231D082
:101C50005148483884422DD04F483038844229D0EA
:101C60004D481838844225D04B48844222D04A48F7
:101C7000183084421ED0494884421BD0474818304F
:101C8000844217D045483030844213D0434848300E
:101C900084420FD04148603084420BD03F487830B6
:101CA000844207D03D489030844203D03B48A8305E
:101CB000844200D105E040F2A231AFF28C70FEF711
:101CC000F7FB206800F0010008B1012500E00025C5
:101CD000284670BD70B5044600252F4890388442D0
:101CE00039D02D487838844235D02B48603884422A
:101CF00031D02948483884422DD027483038844292
:101D000029D025481838844225D02348844222D03F
:101D10002148183084421ED0204884421BD01F48DE
:101D20001830844217D01D483030844213D01B48ED
:101D3000483084420FD01948603084420BD0174895
:101D40007830844207D015489030844203D013483D
:101D5000A830844200D105E04FF47171AFF6300035
:101D6000FEF7A6FB606900F03805284670BD2DE936
:101D7000F04105460C464FF0000800270648903811
:101D800085423ED00448783885423AD002486038CF
:101D9000854236D0004803E0A06002401064024053
:101DA000483885422DD0FE4885422AD0FC4818305C
:101DB000854226D0FA483030854222D0F848483053
:101DC00085421ED0F74885421BD0F6481830854220
:101DD00017D0F4483030854213D0F248483085425D
:101DE0000FD0F048603085420BD0EE487830854205
:101DF00007D0EC489030854203D0EA48A8308542AD
:101E000000D105E040F2E131AFF6DC00FEF750FB17
:101E1000E54884427CD0E4481038844278D0E248D7
:101E20001838844274D0E148844271D0C01E844284
:101E30006ED0DF4884426BD0DE48844268D0DE48F2
:101E4000844265D0D848E030844261D0D648203002
:101E500084425DD0B4F1815F5AD0D848844257D0D3
:101E6000D748844254D0D748844251D0D64884427F
:101E70004ED0B4F1C05F4BD0B4F1A05F48D0B4F104
:101E8000905F45D0B4F1885F42D0B4F1825F3FD01B
:101E9000CE4884423CD0CD481038844238D0CB481C
:101EA0001838844234D0001F844231D0C01E84428E
:101EB0002ED0C74884422BD0C648844228D0C6487A
:101EC000844225D0C148E030844221D0BF48203030
:101ED00084421DD0C14884421AD0C148844217D0E0
:101EE000C048844214D0C048844211D0BF488442C4
:101EF0000ED0B4F1205F0BD0B4F1105F08D0B4F174
:101F0000085F05D0B4F1045F02D0B4F1015F00D1E5
:101F100005E040F2E231AFF6E810FEF7C9FAA14859
:101F2000854202D29E4E703E01E09E4E103E04F06D
:101F3000005008B1776800E03768AD48074007EA0D
:101F4000040010B14FF0010801E04FF000084046D6
:101F5000BDE8F08170B504460D4691486038844272
:101F600039D08F484838844235D08D483038844243
:101F700031D08B48183884422DD0894884422AD0E9
:101F800087481830844226D085483030844222D099
:101F90008348483084421ED0824884421BD0814806
:101FA0001830844217D07F483030844213D07D48A7
:101FB000483084420FD07B48603084420BD079484F
:101FC0007830844207D077489030844203D07548F7
:101FD000A830844200D105E040F22241AFF6B020A3
:101FE000FEF766FA05F04050B0F1405F07D005F00B
:101FF000405020B17F48284008B905B105E040F2C3
:102000002341AFF6D420FEF753FA6648844202D249
:10201000634E703E01E0634E103E05F0005018B173
:1020200073482840F06002E071482840B06070BDFD
:1020300070B504460D46164659486038844239D07A
:1020400057484838844235D055483038844231D0DA
:102050005348183884422DD0514884422AD05048E1
:102060001830844226D04E483030844222D04C482A
:10207000483084421ED04B4884421BD04948183017
:10208000844217D047483030844213D04548483006
:1020900084420FD04348603084420BD041487830AE
:1020A000844207D03F489030844203D03D48A83056
:1020B000844200D105E040F24F41AFF68C30FEF78C
:1020C000F7F925F09E0008B905B105E04FF48A61E3
:1020D000AFF6A430FEF7ECF90EB1012E00D105E009
:1020E00040F25141AFF6B830FEF7E2F905F080005A
:1020F00048B126B1606940F08000606103E060692A
:1021000020F080006061802D0BD02EB1206805F09A
:102110001E010843206004E0206805F01E0188438A
:10212000206070BD2DE9F04705460C464FF00008D1
:102130000027B9461A486038854265D018484838A3
:10214000854261D01648303885425DD01448183831
:10215000854259D01248854256D0114818308542E0
:1021600052D00F48303085424ED00D48483085421D
:102170004AD00C48854247D00A481830854243D09F
:102180000848303085423FD00648483085423BD031
:1021900004486030854237D00248783085422BE0D1
:1021A00070600240106402402000001004008010A3
:1021B00000080010000400100002001000001010C1
:1021C0000000081000000410000001102000002092
:1021D0000008002000040020000200200000202051
:1021E0000000102000000820000004200000012052
:1021F0007D0F7D0F82F082C006D09548854203D0C6
:1022000093481830854200D105E040F28741AFF68F
:10221000E040FEF74DF98F48844278D08E488442E2
:1022200075D08E48844272D08D4884426FD08D48DC
:1022300084426CD08C48844269D08C48844266D0F9
:102240008B48844263D08648FC3084425FD0854806
:102250003F3084425BD08748844258D086488442CD
:1022600055D08648844252D0854884424FD0854814
:1022700084424CD08448844249D08448844246D029
:102280008348844243D08348844240D08248844279
:102290003DD0824884423AD08148844237D0814838
:1022A000844234D08048844231D0804884422ED049
:1022B0007F4884422BD07F48844228D07E48844285
:1022C00025D07948FC30844221D078483F30844280
:1022D0001DD07A4884421AD07948844217D0794870
:1022E000844214D07848844211D0784884420ED079
:1022F000774884420BD07748844208D0764884429D
:1023000005D07648844202D07548844200D105E069
:102310004FF49161AFF6E850FEF7CAF84C48903898
:10232000854201D26F4E01E0494EA03E6E482040EA
:1023300030B11E2000EAD427286800EA070902E02D
:10234000686900F0800904F0005008B1776800E087
:1023500037686648074007EA040028B1B9F1000F62
:1023600002D04FF0010801E04FF000084046BDE800
:10237000F08770B504460D465A48103084423AD072
:1023800058482830844236D056484030844232D0B3
:102390005448583084422ED05248703084422AD05B
:1023A00050488830844226D04E48A030844222D003
:1023B0004C48B83084421ED02548903884421AD008
:1023C00023487838844216D021486038844212D09D
:1023D0001F48483884420ED01D48303884420AD005
:1023E0001B481838844206D01948844203D0184844
:1023F0001830844200D105E040F2D741AFF6D060FA
:10240000FEF756F805F04050B0F1405F07D005F0F8
:10241000405020B11DB13648284000B905E04FF4C6
:102420009B61AFF6F460FEF743F8094890388442A8
:1024300001D22C4E01E0064EA03E05F0005018B12E
:102440002A482840F06002E028482840B06070BD6B
:10245000A0640240208000101040001008200010EE
:1024600004100010010000900088001000440010CB
:1024700000220010008020100040101000200810E2
:1024800000100410000001900080001800400014AB
:102490000020001200100011000040902080002059
:1024A000104000200820002004100020010000A09F
:1024B000008800200044002000220020008020200E
:1024C000004010200020082000100420000001A07F
:1024D000008000280040002400200022001000217D
:1024E000000040A0006002403C0F3C0F7D0F7D0FBC
:1024F0008200824010B50446FA48844217D0FA4858
:10250000844214D0F948844211D0F94884420ED054
:10251000F84884420BD0F848844208D0F7488442F7
:1025200005D0F748844202D0F648844200D103E047
:102530007B21F5A0FDF7BCFFEA48844208D10121C8
:10254000084601F017F90021012001F013F95EE0BF
:10255000E548844208D10121022001F00BF9002155
:10256000022001F007F952E0E048844208D101213D
:10257000042001F0FFF80021042001F0FBF846E000
:10258000DB48844208D10121082001F0F3F8002142
:10259000082001F0EFF83AE0D648844208D1012142
:1025A000102001F0E7F80021102001F0E3F82EE000
:1025B000D148844208D10121202001F0DBF800211C
:1025C000202001F0D7F822E0CC48844208D1012134
:1025D000402001F0CFF80021402001F0CBF816E0B8
:1025E000C748844208D10121802001F0C3F80021AE
:1025F000802001F0BFF80AE0C248844207D10121DF
:10260000801501F0B7F80021A01501F0B3F810BD56
:102610002DE9F04104460D4600260027B046B1489A
:10262000844217D0B048844214D0B048844211D0BC
:10263000AF4884420ED0AF4884420BD0AE488442AB
:1026400008D0AE48844205D0AD48844202D0AD489F
:10265000844200D103E0BB21ABA0FDF729FF00209D
:1026600010B9286800B103E0BC21A7A0FDF720FF46
:10267000287940B12879012805D02879022802D08C
:102680002879032800D103E0BD219FA0FDF710FFAA
:10269000E87928B1E879012802D0E879022800D148
:1026A00003E0BE2198A0FDF703FF002657E00120BC
:1026B00000FA06F7286800EA0708B8454ED12068F6
:1026C000720003219140884320602879710088407E
:1026D0002168084320602879012802D0287902283F
:1026E00030D1687940B16879012805D0687902282D
:1026F00002D06879032800D103E0D02182A0FDF741
:10270000D7FEA0687200032191408843A0606879D9
:1027100071008840A1680843A060A87910B1A87929
:10272000012800D103E0D72177A0FDF7C1FE616841
:102730000120B040814361606068A979B14089B2ED
:1027400008436060E0687200032191408843E060C4
:10275000E87971008840E1680843E060761C102E3B
:10276000A5D3BDE8F0814FF6FF7101600021017132
:1027700041718171C171704738B504460D464FF4FF
:10278000803000905748844217D05748844214D074
:102790005648844211D0564884420ED0554884424F
:1027A0000BD05548844208D05448844205D0544840
:1027B000844202D05348844200D104E04FF4827135
:1027C00051A0FDF775FE002008B905B104E040F204
:1027D00005114DA0FDF76CFE00982843009000986D
:1027E000E061E5610098E061E0690090E0690090D7
:1027F00038BD70B505460C4600263A48854217D0CC
:102800003948854214D03948854211D0384885422C
:102810000ED0384885420BD03748854208D037481B
:10282000854205D03648854202D03648854200D1DF
:1028300004E04FF4987134A0FDF73AFE012C25D046
:10284000022C23D0042C21D0082C1FD0102C1DD0FA
:10285000202C1BD0402C19D0802C17D0B4F5807FB1
:1028600014D0B4F5007F11D0B4F5806F0ED0B4F55C
:10287000006F0BD0B4F5805F08D0B4F5005F05D0D1
:10288000B4F5804F02D0B4F5004F00D104E040F21F
:1028900031111DA0FDF70CFE2869204008B101266A
:1028A00000E00026304670BD10B504460D48844255
:1028B00017D00D48844214D00C48844211D00C48E3
:1028C00084420ED00B4884420BD00B48844208D07F
:1028D0000A48844205D00A48844202D0094884420A
:1028E00030D135E000000240000402400008024000
:1028F000000C024000100240001402400018024088
:10290000001C0240002002404C69627261726965DD
:10291000735C53544D3332463478785F537464504B
:1029200065726970685F4472697665725C73726320
:102930005C73746D3332663478785F6770696F2EBC
:10294000630000004FF4A371AFF24400FDF7B0FD47
:10295000206980B210BD70B505460C460026FE48C1
:10296000854217D0FD48854214D0FD48854211D0DC
:10297000FC4885420ED0FC4885420BD0FB4885427E
:1029800008D0FB48854205D0FA48854202D0FA4873
:10299000854200D105E040F25711AFF29400FDF7F7
:1029A00087FD012C25D0022C23D0042C21D0082C0B
:1029B0001FD0102C1DD0202C1BD0402C19D0802CC7
:1029C00017D0B4F5807F14D0B4F5007F11D0B4F5E2
:1029D000806F0ED0B4F5006F0BD0B4F5805F08D0D7
:1029E000B4F5005F05D0B4F5804F02D0B4F5004FC8
:1029F00000D105E04FF4AC71AFF2F400FDF758FDE3
:102A00006869204008B1012600E00026304670BD0C
:102A100010B50446D048844217D0D048844214D020
:102A2000CF48844211D0CF4884420ED0CE48844251
:102A30000BD0CE48844208D0CD48844205D0CD4842
:102A4000844202D0CC48844200D105E040F26D11AE
:102A5000AFF24C10FDF72CFD606980B210BD70B56F
:102A600004460D46BC48844217D0BC48844214D06A
:102A7000BB48844211D0BB4884420ED0BA4884423D
:102A80000BD0BA48844208D0B948844205D0B9482E
:102A9000844202D0B848844200D105E040F27F1160
:102AA000AFF29C10FDF704FD002008B905B105E068
:102AB0004FF4C071AFF2B010FDF7FAFC258370BD82
:102AC00070B504460D46A448844217D0A3488442FA
:102AD00014D0A348844211D0A24884420ED0A24808
:102AE00084420BD0A148844208D0A148844205D03A
:102AF000A048844202D0A048844200D105E04FF4AF
:102B0000C971AFF2FC10FDF7D3FC002008B905B184
:102B100005E040F29311AFF21020FDF7C9FC658388
:102B200070BD70B505460C4616468B48854217D0D9
:102B30008A48854214D08A48854211D08948854206
:102B40000ED0894885420BD08848854208D08848F5
:102B5000854205D08748854202D08748854200D10A
:102B600005E04FF4D371AFF26020FDF7A1FC012C1A
:102B700025D0022C23D0042C21D0082C1FD0102CBF
:102B80001DD0202C1BD0402C19D0802C17D0B4F590
:102B9000807F14D0B4F5007F11D0B4F5806F0ED0D3
:102BA000B4F5006F0BD0B4F5805F08D0B4F5005FCA
:102BB00005D0B4F5804F02D0B4F5004F00D105E048
:102BC00040F2A711AFF2C020FDF772FC0EB1012E4A
:102BD00000D105E04FF4D471AFF2D420FDF768FCCA
:102BE0000EB12C8300E06C8370BD70B504460D46B9
:102BF0005948844217D05948844214D058488442D6
:102C000011D0584884420ED0574884420BD05748C0
:102C1000844208D05648844205D05648844202D0A7
:102C20005548844200D105E040F2BD11AFF2283092
:102C3000FDF73EFC656170BD70B504460D46464823
:102C4000844217D04548844214D04548844211D06C
:102C5000444884420ED0444884420BD043488442C6
:102C600008D04348844205D04248844202D04248BA
:102C7000844200D105E040F2CB11AFF27430FDF791
:102C800017FC60696840606170BD2DE9F04106463F
:102C90000D4614460027B8462F48864217D02F48C5
:102CA000864214D02E48864211D02E4886420ED03D
:102CB0002D4886420BD02D48864208D02C488642AB
:102CC00005D02C48864202D02B48864200D105E030
:102CD00040F21721AFF2D030FDF7EAFBEDB1012D44
:102CE0001BD0022D19D0032D17D0042D15D0052D82
:102CF00013D0062D11D0072D0FD0082D0DD0092D82
:102D00000BD00A2D09D00B2D07D00C2D05D00D2D81
:102D100003D00E2D01D00F2D00D105E04FF4067128
:102D2000AFF21C40FDF7C4FB44B3092C45D02CB3D3
:102D300024B31CB314B3012C3FD03ED0022C3CD0A2
:102D40003BD03AD0032C38D0042C36D035D034D0F8
:102D5000052C32D031D012E00000024000040240C5
:102D600000080240000C0240001002400014024023
:102D700000180240001C0240002002401DE0092C07
:102D80001BD0062C19D0092C17D0072C15D014D025
:102D900013D0082C11D010D00FD0092C0DD00CD08E
:102DA0000A2C0AD009D00B2C07D00C2C05D004D04B
:102DB00003D00D2C01D00F2C00D105E040F21921D9
:102DC000AFF2BC40FDF774FB6807C00E04FA00F7D1
:102DD000E91006F1200050F821006907CA0E0F2102
:102DE00091408843EA1006F1200141F82200E910E1
:102DF00006F1200050F8210040EA0708E91006F12A
:102E0000200040F82180BDE8F0810000F94800680A
:102E100040F00100F74908600020F64908310860D9
:102E2000F4480068F4490840F2490860F348091D75
:102E30000860081F006820F48020091F0860002037
:102E4000EC490C310860704710B504461CB1012CE8
:102E500001D0052C00D103E0F021E9A0FDF728FB0B
:102E60000020E449891C08700846047010BD2DE953
:102E7000F0410446002500260027212C17D0312CD4
:102E800015D0392C13D0412C11D0612C0FD0792CB6
:102E90000DD07A2C0BD07B2C09D07C2C07D07D2C2C
:102EA00005D07E2C03D07F2C01D03B2C00D104E038
:102EB00040F29C61D2A0FDF7FBFA6511012D02D111
:102EC000CC48066808E0022D03D1CA487030066875
:102ED00002E0C8487430066804F01F050120A840CD
:102EE000304008B1012700E000273846BDE8F081F6
:102EF00038B5002000900024002500BF3120FFF7E6
:102F0000B6FF05460098401C00900098B0F5A06FF1
:102F100001D0002DF2D03120FFF7A9FF08B1012424
:102F200000E00024204638BD70B5044600251F2C63
:102F300000DC04E04FF49471B1A0FDF7B9FAAD489C
:102F4000056825F0F80545EAC405056070BD10B5B3
:102F500004460CB1012C00D104E040F24B11A8A0B2
:102F6000FDF7A6FAB548046010BD10B504461CB1C3
:102F7000012C01D0042C00D104E04FF4B271A0A0C8
:102F8000FDF796FA00209B49703108700870012CFB
:102F900002D0042C0AD104E0012096497031087057
:102FA00005E0052093497031087000E000BF00BFC4
:102FB00010BD10B504460CB1012C00D104E04FF453
:102FC000C6718FA0FDF774FA9D48046010BD2DE90D
:102FD000F04105460F4616461C46DDF8188015B12F
:102FE000B5F5800F00D104E040F2B71184A0FDF7E1
:102FF0005FFA3F2F00D804E04FF4DC7180A0FDF7AA
:1030000057FAC02E03D3B6F5D87F00D804E040F2BB
:10301000B9117BA0FDF74CFA022C05D0042C03D08B
:10302000062C01D0082C00D104E04FF4DD7174A00F
:10303000FDF73EFAB8F1040F03D3B8F10F0F00D833
:1030400004E040F2BB116EA0FDF732FA47EA8610A9
:103050000121C1EB540140EA0140284340EA0860E5
:103060006449091D0860BDE8F08110B504460CB143
:10307000012C00D104E04FF4E77161A0FDF718FACC
:103080006E48046610BD70B505460C46C02D03D3CE
:10309000B5F5D87F00D804E04FF4F47158A0FDF7DF
:1030A00007FA022C02D3072C00D804E040F2E91101
:1030B00053A0FDF7FDF9A80140EA04704D498431A1
:1030C000086070BD10B504460CB1012C00D104E0BD
:1030D00040F2F7114AA0FDF7EBF95848846610BD9D
:1030E00010B504460CB1012C00D104E040F20921D6
:1030F00043A0FDF7DDF95148C46410BD70B5054625
:103100000C46002645B1B5F5001F05D0B5F5800F7A
:1031100002D0B5F5C00F00D104E04FF4097138A01A
:10312000FDF7C6F95CB1B4F1806F08D0B4F1A06FBF
:1031300005D0B4F1C06F02D0B4F1E06F00D104E06B
:1031400040F225212EA0FDF7B3F92A480830066881
:1031500026F0EC6645EA040006432648083006607F
:1031600070BD70B505460C46002645B1B5F1804FDF
:1031700005D0B5F1004F02D0B5F1404F00D104E0C9
:1031800040F24A211EA0FDF793F95CB1B4F1005F53
:1031900008D0B4F1205F05D0B4F1405F02D0B4F1A3
:1031A000605F00D104E040F24B2115A0FDF780F9EB
:1031B00010480830066826F0784645EA04000643C1
:1031C0000C480830066070BD70B5044600251CB17F
:1031D000012C01D0022C00D104E04FF42D7108A085
:1031E000FDF766F903480830056825F00305254317
:1031F000056070BD00380240FFFFF6FE103000246D
:103200004C69627261726965735C53544D33324626
:103210003478785F5374645065726970685F447283
:10322000697665725C7372635C73746D3332663495
:1032300078785F7263632E630000000000004742ED
:10324000800E4742F948006800F00C00704770B5E6
:10325000044600257CB1802C0DD0902C0BD0A02CE6
:1032600009D0B02C07D0C02C05D0D02C03D0E02C36
:1032700001D0F02C00D105E040F2E921AFF280004E
:10328000FDF716F9E948056825F0F00525430560C6
:1032900070BD70B5044600255CB1B4F5805F08D000
:1032A000B4F5A05F05D0B4F5C05F02D0B4F5E05F1F
:1032B00000D105E040F20931AFF2BC00FDF7F8F8AB
:1032C000DA48056825F4E0552543056070BD70B502
:1032D000044600255CB1B4F5805F08D0B4F5A05F6A
:1032E00005D0B4F5C05F02D0B4F5E05F00D105E0D1
:1032F0004FF44A71AFF2F800FDF7DAF8CB480568F1
:1033000025F4604545EAC405056070BDF0B50021AF
:1033100000220024022500260223C44F3F6807F044
:103320000C0121B1042905D0082937D105E0C04F8F
:10333000076036E0BF4F076033E0BC4F3F1F3F6878
:10334000C7F38056B94F3F1F3F6807F03F036EB188
:10335000B84FB7FBF3F7DFF8D4C2ACF1040CDCF8DC
:1033600000C0CCF3881C07FB0CF40CE0B04FB7FB9B
:10337000F3F7DFF8B8C2ACF1040CDCF800C0CCF312
:10338000881C07FB0CF4A94F3F1F3F68C7F3014798
:103390007F1C7D00B4FBF5F7076002E0A44F0760D7
:1033A00000BF00BFA14F3F6807F0F0010909A24F1D
:1033B0007A5C0768D74047609C4F3F6807F4E0514C
:1033C000890A9D4F7A5C4768D7408760974F3F686E
:1033D00007F46041490B984F7A5C4768D740C76053
:1033E000F0BD70B504460025B4F5807F5CD0B4F51F
:1033F000007F59D09148844256D09148844253D09E
:103400009048844250D0904884424DD08F488442A6
:103410004AD08F48844247D08E48844244D08E4858
:10342000844241D08D4884423ED08D4884423BD076
:103430008C48844238D08C48844235D08B488442B2
:1034400032D08B4884422FD08A4884422CD08A487C
:10345000844229D08948844226D08948844223D096
:103460008848844220D0884884421DD087488442BE
:103470001AD08748844217D08648844214D08648A0
:10348000844211D0854884420ED0854884420BD0B6
:103490008448844208D08448844205D083488442CA
:1034A00002D08348844200D105E040F2D931AFF226
:1034B000B020FCF7FDFF04F44070B0F5407F09D167
:1034C0005A48056825F4F8157A4904EA01000543CD
:1034D00056480560554868300068C4F30B0108433E
:1034E00052496831086070BD10B504460CB1012C1A
:1034F00000D105E040F2F731AFF2FC20FCF7D8FF35
:103500006D48046010BD10B504460CB1012C00D10B
:1035100005E04FF48161AFF21830FCF7C9FF66484F
:10352000001D046010BD10B504460CB1012C00D183
:1035300005E040F21941AFF23830FCF7B9FF5F48BF
:10354000046010BD70B504460D465D48204008B9C2
:1035500004B105E04FF48861AFF25C30FCF7A8FFDE
:103560000DB1012D00D105E040F24241AFF27030C3
:10357000FCF79EFF3DB12D482830006820432B49C1
:103580002831086006E0294828300068A043274910
:103590002831086070BD70B504460D4624F0F10076
:1035A00008B904B105E04FF48C61AFF2AC30FCF720
:1035B0007FFF0DB1012D00D105E040F26141AFF276
:1035C000C030FCF775FF3DB118482C30006820432F
:1035D00016492C31086006E014482C300068A043DE
:1035E00012492C31086070BD70B504460D4624F0B8
:1035F000010008B904B105E040F27B41AFF20040A0
:10360000FCF756FF0DB1012D00D105E040F27C41E1
:10361000AFF21440FCF74CFF3DB104483030006875
:10362000204302493031086051E04BE00838024045
:103630000024F40000127A00C800002000030200F9
:10364000000303000003040000030500000306005C
:1036500000030700000308000003090000030A003C
:1036600000030B0000030C0000030D0000030E001C
:1036700000030F00000310000003110000031200FC
:1036800000031300000314000003150000031600DC
:1036900000031700000318000003190000031A00BC
:1036A00000031B0000031C0000031D0000031E009C
:1036B00000031F00FFFCFF0F3C0E47425C01474226
:1036C00000EE8B81F8480068A043F749086070BDA0
:1036D00070B504460D46F548204008B904B105E030
:1036E00040F2AD41AFF2E840FCF7E2FE0DB1012D32
:1036F00000D105E040F2AE41AFF2FC40FCF7D8FE4D
:103700003DB1E948083000682043E74908310860C6
:1037100006E0E54808300068A043E3490831086046
:1037200070BD70B504460D46E148204008B904B1AB
:1037300005E040F2D541AFF23850FCF7B9FE0DB1CB
:10374000012D00D105E040F2D641AFF24C50FCF71C
:10375000AFFE3DB1D4480C3000682043D2490C3153
:10376000086006E0D0480C300068A043CE490C3118
:10377000086070BD70B504460D46CE48204008B9BB
:1037800004B105E040F2FC41AFF28C50FCF790FE32
:103790000DB1012D00D105E040F2FD41AFF2A05086
:1037A000FCF786FE3DB1C048283800682043BE497A
:1037B0002839086006E0BC4828380068A043BA49A8
:1037C0002839086070BD70B504460D4624F0F1003C
:1037D00008B904B105E040F21951AFF2DC50FCF732
:1037E00067FE0DB1012D00D105E040F21A51AFF294
:1037F000F050FCF75DFE3DB1AB4824380068204333
:10380000A9492439086006E0A74824380068A04385
:10381000A5492439086070BD70B504460D4624F0F2
:10382000010008B904B105E040F23151AFF2306057
:10383000FCF73EFE0DB1012D00D105E040F2325102
:10384000AFF24460FCF734FE3DB197482038006881
:10385000204395492039086006E0934820380068E5
:10386000A04391492039086070BD70B504460D46EB
:103870008E48204008B904B105E04FF4AC61AFF2C6
:103880008060FCF715FE0DB1012D00D105E040F27E
:103890006151AFF29460FCF70BFE3DB182481838DD
:1038A0000068204380491839086006E07E481838CF
:1038B0000068A0437C491839086070BD70B50446A3
:1038C0000D467D48204008B904B105E040F284511E
:1038D000AFF2D460FCF7ECFD0DB1012D00D105E095
:1038E00040F28551AFF2E860FCF7E2FD3DB16E4871
:1038F0001438006820436C491439086006E06A48AF
:1039000014380068A04368491439086070BD70B568
:1039100004460D466948204008B904B105E040F26C
:10392000B251AFF22470FCF7C3FD0DB1012D00D1EF
:1039300005E040F2B351AFF23870FCF7B9FD3DB18C
:10394000594818300068204357491831086006E08C
:10395000554818300068A04353491831086070BDBD
:1039600070B504460D4624F0F10008B904B105E035
:1039700040F2D251AFF27870FCF79AFD0DB1012DF3
:1039800000D105E040F2D351AFF28C70FCF790FD0E
:103990003DB145481C300068204343491C31086054
:1039A00006E041481C300068A0433F491C310860D4
:1039B00070BD70B504460D4624F0010008B904B18D
:1039C00005E040F2ED51AFF2C870FCF771FD0DB1AA
:1039D000012D00D105E040F2EE51AFF2DC70FCF7B2
:1039E00067FD3DB130482030006820432E4920312A
:1039F000086006E02C4820300068A0432A492031A6
:103A0000086070BD70B504460D462848204008B9CE
:103A100004B105E040F21F61AFF61C00FCF748FD61
:103A20000DB1012D00D105E04FF4C461AFF63000B7
:103A3000FCF73EFD3DB11C482830006820431A4980
:103A40002831086006E0184828300068A04316496D
:103A50002831086070BD70B504460D4614482040FA
:103A600008B904B105E040F24761AFF66C00FCF71D
:103A70001FFD0DB1012D00D105E04FF4C961AFF676
:103A80008000FCF715FD3DB107482C30006820434D
:103A900005492C31086006E003482C300068A0433B
:103AA00001492C31086070BD38380240003601C928
:103AB000CCA0F8FF00EE9FDDCCA6F8FF006E988149
:103AC00070B504460D4604F0C00008B904B105E025
:103AD00040F27461AFF6D800FCF7EAFC0DB1012D9D
:103AE00000D105E040F27561AFF6EC00FCF7E0FCB8
:103AF0002DB12448007820432249087004E0214871
:103B00000078A0431F49087070BD1E4867300068E8
:103B100040F080701B4967310860704770B50446FB
:103B20000025012C0BD0022C09D0042C07D0082C26
:103B300005D0102C03D0802C01D0202C00D105E022
:103B400040F2DA61AFF64810FCF7B2FC0D48401EB7
:103B50000068204008B1012500E00025284670BD1E
:103B600010B5044604F0400008B904B105E040F285
:103B7000F961AFF67410FCF79BFC0248401C04701E
:103B800010BD00000D38024010B50121C802FFF73A
:103B900095FE00214FF40060FFF790FE10BD70B558
:103BA00004460025206818B12068B0F5005F00D1F8
:103BB00004E040F21511F6A0FCF77AFC606818B139
:103BC0006068B0F5806F00D104E04FF48B71F0A015
:103BD000FCF76EFCA06818B1A068B0F5007F00D1BA
:103BE00004E040F21711EAA0FCF762FCE06838B18B
:103BF000E068B0F5006F03D0E068B0F5805F00D1F9
:103C000004E04FF48C71E2A0FCF752FC206918B17B
:103C10002069B0F5804F00D104E040F21911DCA01A
:103C2000FCF746FCE948056847F6FF608543207DC0
:103C3000A168084361680843E168084321680843B4
:103C4000216908430543E148056070BD0021017505
:103C5000016041608160C1600161704710B5044638
:103C60000CB1012C00D104E04FF4A571C8A0FCF701
:103C70001FFCD748046010BD10B504460CB1032CDE
:103C800000D104E04FF4AD71C1A0FCF711FCCF48A6
:103C9000001F046010BDCD48001F006800F0030045
:103CA000704770B5044600256068402800D204E0E3
:103CB00040F28D11B6A0FCF7FBFBA06828B1A0680C
:103CC000402802D0A068C02800D104E04FF4C7719A
:103CD000AFA0FCF7EDFBE06838B1E068B0F5807F9D
:103CE00003D0E068B0F5007F00D104E040F28F110E
:103CF000A7A0FCF7DDFB2069B0F5806F01D020693B
:103D000000B904E04FF4C871A1A0FCF7D1FBAF49A2
:103D1000091D20680860081D05686FF30A05D4E9CD
:103D200001010843E1680843216908430543A748A6
:103D30000830056070BD0021016041608160C16094
:103D400001617047A1480C300068C0B2704738B5B7
:103D50000446002000902CB1042C03D0082C01D084
:103D60000C2C00D104E040F2CF1189A0FCF7A0FB9D
:103D700096481030204400900098006838BD70B517
:103D8000044600256068B0F1007F00D204E040F2F4
:103D9000F5117FA0FCF78CFBA06848B3A068102841
:103DA00026D0A068202823D0A068302820D0A06882
:103DB00040281DD0A06850281AD0A068602817D0CD
:103DC000A068702814D0A068802811D0A06890281E
:103DD0000ED0A068A0280BD0A068B02808D0A0689A
:103DE000C02805D0A068D02802D0A068E02800D163
:103DF00004E04FF4FB7166A0FCF75AFBE06810B1D9
:103E0000E068022800D104E040F2F71160A0FCF75E
:103E10004FFB2069042801D0206900B904E04FF469
:103E2000FC715BA0FCF744FB6069012801D060696C
:103E300000B904E040F2F91155A0FCF739FB6349E1
:103E4000203120680860091D60680860081D056849
:103E500025F0F705D4E902010843216908436169A7
:103E60000843054359482830056070BD4FF0FF31C5
:103E70000160002141608160C16001614161704762
:103E800052482C300068704750487C3000687047BA
:103E90004E497C31086070474C4844300068704798
:103EA00010B504460CB1012C00D104E040F26721AA
:103EB00037A0FCF7FDFA4748046010BD10B5044672
:103EC0000CB1012C00D104E040F2752130A0FCF7C8
:103ED000EFFA4048001D046010BD10B504460CB157
:103EE000012C00D104E040F2852129A0FCF7E0FA82
:103EF00038480830046010BD10B504460CB1012CE0
:103F000000D104E040F2932121A0FCF7D1FA31481E
:103F10000C30046010BD10B504460CB1012C00D16A
:103F200004E040F2A1211AA0FCF7C2FA2A4804607A
:103F300010BD10B504460CB1012C00D104E040F2D4
:103F4000C12113A0FCF7B4FA2348001D046010BD82
:103F500010B504460CB1012C00D104E040F2CF2191
:103F60000BA0FCF7A5FA0120A0431B49083108600B
:103F700010BD10B504460CB1012C00D104E040F294
:103F8000DD2103A0FCF794FA13480C30046010BD47
:103F90004C69627261726965735C53544D33324689
:103FA0003478785F5374645065726970685F4472E6
:103FB000697665725C7372635C73746D33326634F8
:103FC00078785F7364696F2E63000000042C0140F1
:103FD000A0802542A0852542AC81254210B504462B
:103FE0000CB1012C00D105E040F2FD21AFF26000E0
:103FF000FCF75EFA7848046010BD70B504460D46C3
:1040000004F07F4008B904B105E040F23731AFF267
:104010008000FCF74DFA0DB1012D00D105E04FF401
:104020004E71AFF29400FCF743FA2DB16B48006873
:1040300020436A49086004E068480068A043674973
:10404000086070BD70B504460025012C3DD0022CDF
:104050003BD0042C39D0082C37D0102C35D0202C54
:1040600033D0402C31D0802C2FD0B4F5807F2CD091
:10407000B4F5007F29D0B4F5806F26D0B4F5006F79
:1040800023D0B4F5805F20D0B4F5005F1DD0B4F527
:10409000804F1AD0B4F5004F17D0B4F5803F14D03C
:1040A000B4F5003F11D0B4F5802F0ED0B4F5002F39
:1040B0000BD0B4F5801F08D0B4F5001F05D0B4F5BF
:1040C000800F02D0B4F5000F00D105E040F2693155
:1040D000AFF24410FCF7ECF9404808380068204083
:1040E00008B1012500E00025284670BD10B5044642
:1040F0003B48204008B904B105E04FF46371AFF2CA
:104100007010FCF7D5F93548001F046010BD70B57C
:1041100004460025012C3DD0022C3BD0042C39D084
:10412000082C37D0102C35D0202C33D0402C31D057
:10413000802C2FD0B4F5807F2CD0B4F5007F29D00F
:10414000B4F5806F26D0B4F5006F23D0B4F5805F4E
:1041500020D0B4F5005F1DD0B4F5804F1AD0B4F56F
:10416000004F17D0B4F5803F14D0B4F5003F11D004
:10417000B4F5802F0ED0B4F5002F0BD0B4F5801F0E
:1041800008D0B4F5001F05D0B4F5800F02D0B4F507
:10419000000F00D105E040F2B531AFF20C20FCF782
:1041A00087F90E4808380068204008B1012500E072
:1041B0000025284670BD10B504460948204008B9BE
:1041C00004B105E040F2D731AFF23C20FCF770F9C2
:1041D0000248001F046010BD8C8525423C2C014024
:1041E00000F83FFF10B50446F84884420ED0F84866
:1041F00084420BD0F748844208D0F748844205D067
:10420000F648844202D0F648844200D103E0B5214A
:10421000F4A0FCF74DF9ED48844208D101211020AB
:10422000FFF74CFB00211020FFF748FB3EE0E84879
:10423000844209D101214804FFF717FB00214FF404
:104240000030FFF712FB31E0E248844209D101213E
:104250008804FFF70AFB00214FF48020FFF705FBDD
:1042600024E0DD48844209D10121C804FFF7FDFAAA
:1042700000214FF40020FFF7F8FA17E0D7488442F6
:1042800009D101210805FFF7F0FA00214FF4801051
:10429000FFF7EBFA0AE0D248844207D1012120203F
:1042A000FFF70CFB00212020FFF708FB10BD2DE9D4
:1042B000FF4705460C460026B14600BFB046C3483E
:1042C00085420ED0C24885420BD0C248854208D0F4
:1042D000C148854205D0C148854202D0C0488542C8
:1042E00000D103E0EB21BFA0FCF7E2F8206820B189
:1042F000CB492068884200D203E0EC21B9A0FCF74A
:10430000D7F8A08818B1A088B0F5805F00D103E08D
:10431000ED21B4A0FCF7CCF8E08858B1E088B0F506
:10432000805F07D0E088B0F5005F03D0E088B0F58B
:10433000405F00D103E0EE21AAA0FCF7B9F8208984
:1043400038B12089B0F5806F03D02089B0F5C06FF7
:1043500000D103E0EF21A3A0FCF7AAF860894FF693
:10436000F371084010B9608900B103E0F0219DA00D
:10437000FCF79EF8A08958B1A089B0F5807F07D0DE
:10438000A089B0F5007F03D0A089B0F5407F00D1AF
:1043900003E0F12193A0FCF78BF8A08980B18B4852
:1043A000854208D08A48854205D08A48854202D095
:1043B0008B48854200D103E0F6218AA0FCF778F80B
:1043C0002E8A26F44056E08806432E82AE8941F2BA
:1043D0000C608643A088218908436189084306430D
:1043E000AE81AE8A26F44076A0890643AE82684646
:1043F000FEF78CFF7548854202D07948854202D18C
:10440000DDF80C9001E0DDF80890A88900F4004088
:1044100040B109EBC90000EB091021684900B0FB6D
:10442000F1F707E009EBC90000EB091021688900EA
:10443000B0FBF1F76420B7FBF0F00601300964210E
:1044400001FB1078A88900F4004040B1322000EB55
:10445000C800B0FBF1F000F00700064308E032208E
:1044600000EB08106421B0FBF1F000F00F000643F0
:104470002E81BDE8FF874FF4165101600021818035
:10448000C18001810C21418100218181704770B57B
:1044900005460C4600264D48854208D04C488542CA
:1044A00005D04C48854202D04D48854200D104E0F9
:1044B0004FF4B6714BA0FBF7FBFF208818B12088A2
:1044C000B0F5006F00D104E040F26D1145A0FBF79C
:1044D000EFFF608818B16088B0F5806F00D104E00C
:1044E0004FF4B7713FA0FBF7E3FFA08818B1A08895
:1044F000B0F5007F00D104E040F26F1139A0FBF766
:10450000D7FFE08818B1E088B0F5807F00D104E0E3
:104510004FF4B87133A0FBF7CBFF2E8A26F47066F8
:10452000208861880843A1880843E188084306433E
:104530002E8270BD0021018041808180C180704742
:1045400070B504460D46214884420ED0204884426E
:104550000BD02048844208D01F48844205D01F4811
:10456000844202D01E48844200D104E040F29B11F4
:104570001CA0FBF79DFF0DB1012D00D104E04FF40D
:10458000CE7118A0FBF794FF25B1A08940F400502C
:10459000A08104E0A0894DF6FF710840A08170BDA4
:1045A00070B504460D46094884420ED0084884423E
:1045B0000BD00848844208D00748844205D00748F9
:1045C000844202D0064884422CD131E000100140E0
:1045D0000044004000480040004C004000500040B3
:1045E000001401404C69627261726965735C5354D6
:1045F0004D3332463478785F537464506572697015
:10460000685F4472697665725C7372635C73746D23
:104610003332663478785F75736172742E6300008C
:10462000E170720040F2B511AFF24800FBF740FFB5
:10463000208B00F47F402083208B2843208370BD93
:1046400070B504460D46FE4884420ED0FD488442B3
:104650000BD0FD48844208D0FC48844205D0FC4879
:10466000844202D0FB48844200D105E04FF4E5715A
:10467000AFF29000FBF71CFF0DB1012D00D105E05A
:1046800040F2CB11AFF2A400FBF712FF25B1A089D5
:1046900040F40040A08103E0A089C0F30E00A08197
:1046A00070BD70B504460D46E54884420ED0E5481D
:1046B00084420BD0E448844208D0E448844205D0C8
:1046C000E348844202D0E348844200D105E04FF43D
:1046D000F271AFF2F000FBF7EBFE0DB1012D00D14E
:1046E00005E040F2E511AFF20410FBF7E1FE25B161
:1046F000A08A40F40060A08204E0A08A4FF2FF711B
:104700000840A08270BD70B504460D46CC48844276
:104710000ED0CC4884420BD0CB48844208D0CB4842
:10472000844205D0CA48844202D0CA48844200D19B
:1047300005E040F21D21AFF25410FBF7B9FEB5F5CC
:10474000007F00DA05E040F21E21AFF26810FBF7AF
:10475000AFFEC5F30800A08070BD10B50446B84890
:1047600084420ED0B74884420BD0B748844208D068
:10477000B648844205D0B648844202D0B548844247
:1047800000D105E040F22D21AFF2A810FBF790FE1A
:10479000A088C0F3080010BD70B504460D46A848B7
:1047A00084420ED0A74884420BD0A748844208D048
:1047B000A648844205D0A648844202D0A548844237
:1047C00000D105E04FF41871AFF2E810FBF770FE6E
:1047D0000F2D00DC05E040F26121AFF2F810FBF78D
:1047E00067FE208A4FF6F07108402082208A284315
:1047F000208270BD70B504460D46914884420ED0AB
:10480000904884420BD09048844208D08F4884421C
:1048100005D08F48844202D08E48844200D105E002
:104820004FF41D71AFF24420FBF742FE0DB1012D94
:1048300000D105E040F27521AFF25820FBF738FEB9
:1048400025B1A08940F00200A08104E0A0894FF6C4
:10485000FD710840A08170BD70B504460D467848D2
:1048600084420ED0774884420BD07748844208D0E7
:104870007648844205D07648844202D07548844206
:1048800000D105E040F28F21AFF2A820FBF710FE27
:1048900015B1B5F5006F00D105E04FF42471AFF20A
:1048A000BC20FBF705FEA0894FF2FF710840A081F4
:1048B000A0892843A08170BD70B504460D466048AC
:1048C00084420ED05F4884420BD05F48844208D0B7
:1048D0005E48844205D05E48844202D05D488442EE
:1048E00000D105E04FF43571AFF20830FBF7E0FD81
:1048F0000DB1202D00D105E040F2D521AFF21C30E2
:10490000FBF7D6FD208A4FF6DF7108402082208A0F
:104910002843208270BD70B504460D464848844245
:104920000ED0484884420BD04748844208D04748BC
:10493000844205D04648844202D04648844200D191
:1049400005E040F2E621AFF26430FBF7B1FD0DB1B6
:10495000012D00D105E040F2E721AFF27830FBF7FE
:10496000A7FD25B1208A40F48040208204E0208AFF
:104970004BF6FF710840208270BD10B504463048E8
:1049800084420ED02F4884420BD02F48844208D056
:104990002E48844205D02E48844202D02D488442BD
:1049A00000D105E040F2FE21AFF2C830FBF780FDF8
:1049B000A08940F00100A08110BD70B504460D46ED
:1049C0001F4884420ED01F4884420BD01E488442A8
:1049D00008D01E48844205D01D48844202D01D489C
:1049E000844200D105E040F23331AFF20840FBF7DA
:1049F0005FFD0DB1012D00D105E04FF44D71AFF217
:104A00001C40FBF755FD25B1A08A40F00800A082AC
:104A100004E0A08A4FF6F7710840A08270BD70B51F
:104A200004460D460648844208D00648844205D014
:104A30000548844202D0074884420DD112E00000AC
:104A4000001001400044004000480040004C00407D
:104A500000500040001401404FF46271AFF27C40FE
:104A6000FBF726FD208BC0B22083208B40EA052077
:104A7000208370BD70B504460D46F948844208D0C5
:104A8000F848844205D0F848844202D0F74884426E
:104A900000D105E040F29B31AFF2B840FBF708FDD2
:104AA0000DB1012D00D105E04FF46771AFF2CC409C
:104AB000FBF7FEFC25B1A08A40F02000A08204E0B4
:104AC000A08A4FF6DF710840A08270BD70B5044621
:104AD0000D46E348844208D0E248844205D0E248CB
:104AE000844202D0E148844200D105E04FF46D7168
:104AF000AFF21050FBF7DCFC0DB1012D00D105E049
:104B000040F2B531AFF22450FBF7D2FC25B1A08AB8
:104B100040F01000A08204E0A08A4FF6EF71084038
:104B2000A08270BD70B504460D46CD4884420ED0BB
:104B3000CC4884420BD0CC48844208D0CC48844234
:104B400005D0CC48844202D0C848844200D105E058
:104B500040F2FB31AFF27450FBF7AAFC042D00D0F9
:104B600005B905E04FF47F71AFF28850FBF7A0FC68
:104B7000A08A4FF6FB710840A082A08A2843A08239
:104B800070BD70B504460D46B54884420ED0B54898
:104B900084420BD0B448844208D0B548844205D042
:104BA000B448844202D0B148844200D105E040F2CA
:104BB0000D41AFF2D050FBF77BFC0DB1012D00D1C0
:104BC00005E040F20E41AFF2E450FBF771FC25B175
:104BD000A08A40F00200A08204E0A08A4FF6FD7196
:104BE0000840A08270BD70B504460D4616469C482C
:104BF00084420ED09B4884420BD09B48844208D00C
:104C00009B48844205D09B48844202D09748844206
:104C100000D105E040F23B41AFF23860FBF748FCC1
:104C20004FF63F70284008B905B105E040F23C411D
:104C3000AFF25060FBF73CFC0EB1012E00D105E055
:104C400040F23D41AFF26460FBF732FC1EB1A08A36
:104C50002843A08202E0A08AA843A08270BD2DE96B
:104C6000F04704460D4617464FF00008C246C146BD
:104C700000267B4884420ED07A4884420BD07A4882
:104C8000844208D07A48844205D07A48844202D0CF
:104C90007648844200D105E040F2BD41AFF2BC60ED
:104CA000FBF706FC282D19D040F22770854215D05D
:104CB00040F22660854211D040F2255085420DD049
:104CC00040F22440854209D040F64600854205D096
:104CD00040F66A10854201D0602D00D105E040F217
:104CE000BE41AFF20070FBF7E3FB0FB1012F00D123
:104CF00005E040F2BF41AFF21470FBF7D9FB40F67C
:104D00006A10854212D15648844208D055488442E0
:104D100005D05548844202D05448844200D105E071
:104D200040F2C441AFF24470FBF7C2FB2646C5F324
:104D3000421805F01F0A012000FA0AF9B8F1010F24
:104D400001D10C3605E0B8F1020F01D1103600E0B8
:104D5000143627B1306840EA0900306003E030685B
:104D600020EA09003060BDE8F08770B505460C46C2
:104D700000263B4885420ED03A4885420BD03A483F
:104D8000854208D03A48854205D03A48854202D04B
:104D90003648854200D105E040F2FC41AFF2BC70DC
:104DA000FBF786FB012C13D0802C11D0402C0FD0A8
:104DB000202C0DD0102C0BD0B4F5807F08D0B4F58A
:104DC000007F05D0082C03D0042C01D0022C00D188
:104DD00005E040F2FD41AFF2F470FBF769FBB4F57A
:104DE000007F12D11E48854208D01E48854205D05A
:104DF0001D48854202D01D48854200D105E040F2A1
:104E00000251AFF62000FBF753FB2888204008B181
:104E1000012600E00026304670BD70B504460D4600
:104E20000F4884420ED00F4884420BD00E48844273
:104E300008D00F48844205D00E48844202D00B4867
:104E4000844200D105E040F22C51AFF66800FBF738
:104E50002FFB4FF69F40284070B96DB112E0000063
:104E60000010014000440040004800400014014090
:104E7000004C00400050004040F22D51AFF69C0025
:104E8000FBF716FB05F40070B0F5007F12D17C48EB
:104E9000844208D07B48844205D07B48844202D0BB
:104EA0007A48844200D105E040F23251AFF6CC009E
:104EB000FBF7FEFAE843208070BD2DE9F047054678
:104EC0000C4600270026B046B1466D4885420ED0FC
:104ED0006C4885420BD06C48854208D06C488542AE
:104EE00005D06C48854202D06848854200D105E073
:104EF0004FF4AA61AFF61410FBF7DAFA282C27D08A
:104F000040F22770844223D040F2266084421FD0B2
:104F100040F2255084421BD040F22440844217D0F6
:104F200040F64600844213D040F66A1084420FD007
:104F3000B4F5587F0CD040F22530844208D0B4F547
:104F4000587F05D0B4F5187F02D0B4F5B07F00D1FA
:104F500005E040F25151AFF67410FBF7A9FA40F6A4
:104F60006A10844212D14648854208D0454885429D
:104F700005D04548854202D04448854200D105E02D
:104F800040F25651AFF6A410FBF792FAC4F3421860
:104F900004F01F06012000FA06F6B8F1010F02D155
:104FA000A889064007E0B8F1020F02D1288A06401E
:104FB00001E0A88A06402712012000FA07F7288896
:104FC00007401EB117B14FF0010901E04FF0000991
:104FD0004846BDE8F0872DE9F04104460D4600261D
:104FE0000027274884420ED0264884420BD026480A
:104FF000844208D02648844205D02648844202D004
:105000002248844200D105E040F29951AFF62C20AD
:10501000FBF74EFA40F2266085420BD040F2255055
:10502000854207D040F64600854203D040F66A101C
:10503000854200D105E040F29A51AFF65820FBF7C7
:1050400037FA40F66A10854212D10D48844208D0E2
:105050000C48844205D00C48844202D00B4884425C
:1050600000D105E040F29F51AFF68820FBF720FA0F
:105070002E120120B04087B2F8432080BDE8F081B5
:10508000001001400044004000480040001401406E
:10509000004C004000500040094880470948004744
:1050A000FEE7FEE7FEE7FEE7FEE7FEE7FEE7FEE7D8
:1050B000FEE7FEE704480549054A064B7047000035
:1050C000090E000889010008203C00202042002031
:1050D000203E0020203E002070471748006870479F
:1050E00070B5044603F0A8FF05461348046028463F
:1050F00003F0A6FF70BD10B50F480068401C0E49B4
:10510000086003F099FA0446A06C401EA064A06CED
:1051100018B9606CA06403F04DFB03F02CFE10BDC9
:105120000146642201FB02F000F2E7304FF47A728C
:10513000B0FBF2F070470000D80000202DE9F041EC
:10514000064603F079FA08B103F039F9A34D6C680B
:1051500010E0A4F10C0708223146384601F087FE22
:1051600038B903F069FA08B103F037F93846BDE8F9
:10517000F0812468281D8442EBD103F05DFA08B168
:1051800003F02BF90020F2E770B504460D461646F1
:1051900014B94FF0FF3070BD2846FFF7CFFF10B1B4
:1051A0004FF0FF30F7E72A460721204602F0C5FE00
:1051B000E6820020A076208300BFECE710B504460D
:1051C00024B94822864987A002F0CFF9204602F090
:1051D000DAFE002010BD0020704770B5044600259F
:1051E00024B9952283497FA002F0BFF9606A90B18B
:1051F000A07D00F0100070B92046616A884705461E
:105200002DB12A4621467CA002F0D3F803E0E08AC3
:1052100040F01000E082284670BD70B504460E468E
:10522000002524B9B82282496EA002F09EF9A07D23
:1052300000F0100088B9606A58B12046616A88475A
:10524000054635B12A4621466BA002F0B2F8284641
:1052500070BDE08A40F01000E082A07D00F0080000
:1052600030B1207E00F0080010B16FF00600EFE7CB
:10527000A06A20B131462046A26A904705460DB18A
:10528000A81D60B946F008002083A07E401CA076CF
:10529000A07E20B9E122664966A002F066F92846A0
:1052A000D6E770B50446002524B9F32266494DA01F
:1052B00002F05BF9A07E10B94FF0FF3070BDA07E08
:1052C000401EA076A07E08B10020F7E7E06A18B182
:1052D0002046E16A884705460DB1A81D08B900209F
:1052E00020832846EAE72DE9F04104460D4616469C
:1052F0001F462CB94FF48E7254493AA002F035F98A
:10530000A07E30B94FF0FF3001F0A2FC0020BDE8D4
:10531000F081206B38B13B46324629462046D4F80E
:1053200030C0E047F3E76FF0050001F091FC00208A
:10533000EDE72DE9F04104460D4616461F462CB90F
:105340004FF4A172424927A002F00FF9A07E30B9B4
:105350004FF0FF3001F07CFC0020BDE8F081606B75
:1053600038B13B46324629462046D4F834C0E0479F
:10537000F3E76FF0050001F06BFC0020EDE770B57E
:1053800004460D4616462CB94FF4B172314915A0AA
:1053900002F0EBF8A06B28B1324629462046A36BF9
:1053A000984770BD0020FCE770B504460D462CB947
:1053B00040F27B1228490BA002F0D7F8E5610020EB
:1053C00070BD70B504460D462CB94FF4C872234920
:1053D00004A002F0CAF82562002070BD8001002000
:1053E000C04D010864657620213D2052545F4E5522
:1053F0004C4C0000D54D0108546F20696E697469EA
:10540000616C697A65206465766963653A25732005
:105410006661696C65642E20546865206572726FE0
:105420007220636F64652069732025640A000000A0
:10543000E44D01086465762D3E7265665F636F75A5
:105440006E7420213D203000F34D0108034E010809
:10545000124E0108224E0108344E01084E4E01083A
:105460003A490860704770B544E000BF03F0E4FDBE
:10547000064601F0D7FB40B1354936A001F099FF4F
:105480005E2233493CA002F070F8304603F0D8FDAC
:1054900000BF03F0D1FD054600F04FF8E0B13748FA
:1054A0000068A0F1140404F11400D0E90021516057
:1054B000D0E9001211604060006000BFA06F10B121
:1054C0002046A16F8847204602F0E5FD012807D15C
:1054D000284603F0B5FD70BD284603F0B1FDFAE79C
:1054E000284603F0ADFDA06A02F088FA204602F0DB
:1054F000A8FD00BF00F021F80028B6D100BFEAE700
:1055000007E01248006810B1104800688047FFF7B4
:10551000AAFFF6E71FB520201F214201184BCDE955
:105520000032CDE902100023164A17A1184803F0F3
:105530005EF8174803F0AAF81FBD104908688842B2
:1055400001D0012070470020FCE70000DC000020B3
:10555000684E010846756E6374696F6E5B25735DF6
:10556000207368616C6C206E6F74207573656420A5
:10557000696E204953520A0030000000C401002027
:1055800088280020015500087469646C65000000DB
:10559000082800204268116042684A604160086043
:1055A00070472DE9F04105460C469046204603F031
:1055B0002DF9B8F1000F03D0B8F1010F23D105E0A8
:1055C00004F114012846FFF7E5FF1CE02E680FE008
:1055D000A6F1140794F8350097F83510884206DADA
:1055E00004F1140107F11400FFF7D4FF02E036685C
:1055F000AE42EDD100BFAE4204D104F11401284601
:10560000FFF7C8FF00BF00BF0020BDE8F08170B504
:1056100005460EE003F010FD06462868A0F11404CC
:105620004FF0FF302063204603F009F8304603F0C6
:1056300007FD284601F0B0FA0028EBD0002070BD2D
:105640002DE9F04104460D4616461F4624B9D822DE
:10565000FD49FEA001F089FF2A460121204602F003
:105660006CFC204601F0A0FAA68367720020BDE81A
:10567000F08110B5044624B9F522F849F3A001F0F1
:1056800074FF04F11400FFF7C2FF204602F07BFC18
:10569000002010BD2DE9F04105460E46174600BF1B
:1056A00003F0CAFC804601F0BDFA48B1EC49EDA018
:1056B00001F07FFE40F21112E949F3A001F055FF1D
:1056C000404603F0BDFC00BF2946012002F077FCF4
:1056D000044614B92046BDE8F081204601F064FA82
:1056E000A68367722046F6E770B5044600BF03F054
:1056F000A3FC054601F096FA48B1E449D9A001F0AF
:1057000058FE4FF49872E149DFA001F02EFF2846C1
:1057100003F096FC00BF2CB94FF49972DB49CBA083
:1057200001F023FF04F11400FFF771FF204602F09F
:1057300088FC002070BD2DE9F34105462DB940F2EB
:105740004D12D349C1A001F010FF00BFD14800683D
:1057500018B12846CF490968884700BF03F06CFCA0
:10576000064600BF00BFA88B002806DDA88B401EA0
:10577000A883304603F064FC57E0019830B9304606
:1057800003F05EFC6FF00100BDE8FC8100BF03F098
:1057900053FC074602F050FF48B9BD49BEA001F0D6
:1057A00008FE40F26D12BA49B7A001F0DEFE00BF5C
:1057B00003F042FC804601F035FA48B1B449A9A093
:1057C00001F0F7FD40F26D12B149AFA001F0CDFE3E
:1057D000404603F035FC00BF384603F031FC00BF03
:1057E00002F02AFF04460020206300BF00BF6A7A4F
:1057F000214605F11400FFF7D4FE019800280BDDC7
:1058000000BF00BF01AA002104F14C0003F08DFA93
:1058100004F14C0003F0CFF9304603F011FC02F024
:1058200033FD206B08B1206BAEE700BFA8480068CD
:1058300018B12846A6490968884700BF0020A3E799
:1058400010B5044600212046FFF775FF10BD70B566
:10585000044600BF9F48006818B120469D4909686A
:10586000884700BF002503F0E7FB064600BF00BFE6
:1058700004F1140001F090F928B904F1140001F0CA
:105880009BF9012502E0A08B401CA083304603F069
:10589000D7FB012D01D102F0F7FC002070BD2DE9EE
:1058A000F04104460E4615462CB94FF4F2728A496F
:1058B00066A001F05AFE012E10D12F4603F0BCFB6A
:1058C000804604F11400FFF7A2FEA783404603F0D0
:1058D000B7FB02F0D9FC0020BDE8F0814FF0FF30AB
:1058E000FAE770B504460D4616462CB940F20F2271
:1058F0007A497BA001F039FE2A460221204602F0B7
:105900001CFB204601F050F90120A08300202062FA
:10591000FF20A0770020E077667270BD10B50446C6
:105920002CB940F22E2273496DA001F01EFE04F145
:105930001400FFF76CFE204602F025FB002010BD8E
:105940002DE9F04105460E4600BF03F075FB074602
:1059500001F068F948B1684942A001F02AFD40F21F
:105960004922654948A001F000FE384603F068FB73
:1059700000BF2946022002F022FB044614B920464B
:10598000BDE8F081204601F00FF90120A08300203E
:105990002062FF20A0770020E07766722046EFE7C4
:1059A00070B5044600BF03F047FB054601F03AF925
:1059B00048B152492BA001F0FCFC40F26A224F4949
:1059C00031A001F0D2FD284603F03AFB00BF2CB90C
:1059D0004FF41B72494942A001F0C7FD04F11400C5
:1059E000FFF715FE204602F02CFB002070BD2DE9CC
:1059F000F341044600BF03F01FFB074602F01CFE04
:105A000048B93F4924A001F0D4FC4FF422723C492C
:105A10001DA001F0AAFD00BF03F00EFB804601F0BF
:105A200001F948B136490FA001F0C3FC4FF42272CE
:105A3000334915A001F099FD404603F001FB00BF7A
:105A4000384603F0FDFA5DE07E4E010873656D2077
:105A5000213D2052545F4E554C4C00008A4E0108A7
:105A6000984E010846756E6374696F6E5B25735DB1
:105A7000207368616C6C206E6F7420757365642090
:105A8000696E204953520A0030000000A64E0108FA
:105A9000B44E0108A801002046756E6374696F6EEC
:105AA0005B25735D207368616C6C206E6F7420627F
:105AB000652075736564206265666F726520736327
:105AC000686564756C65722073746172740A000095
:105AD000AC010020B0010020C04E0108CF4E0108EB
